{
  "_format": "hh-sol-artifact-1",
  "contractName": "NeonLedgerProtect",
  "sourceName": "contracts/NeonLedgerProtect.sol",
  "abi": [
    {
      "inputs": [],
      "stateMutability": "nonpayable",
      "type": "constructor"
    },
    {
      "anonymous": false,
      "inputs": [
        {
          "indexed": true,
          "internalType": "address",
          "name": "user",
          "type": "address"
        }
      ],
      "name": "BalanceUpdated",
      "type": "event"
    },
    {
      "anonymous": false,
      "inputs": [
        {
          "indexed": true,
          "internalType": "uint256",
          "name": "entryId",
          "type": "uint256"
        },
        {
          "indexed": true,
          "internalType": "address",
          "name": "owner",
          "type": "address"
        }
      ],
      "name": "EntryCreated",
      "type": "event"
    },
    {
      "inputs": [
        {
          "internalType": "externalEuint32",
          "name": "amount",
          "type": "bytes32"
        },
        {
          "internalType": "uint256",
          "name": "timestamp",
          "type": "uint256"
        },
        {
          "internalType": "externalEuint8",
          "name": "isIncome",
          "type": "bytes32"
        },
        {
          "internalType": "externalEuint8",
          "name": "category",
          "type": "bytes32"
        },
        {
          "internalType": "externalEuint8",
          "name": "subcategory",
          "type": "bytes32"
        },
        {
          "internalType": "bytes",
          "name": "inputProof",
          "type": "bytes"
        }
      ],
      "name": "createLedgerEntry",
      "outputs": [
        {
          "internalType": "uint256",
          "name": "",
          "type": "uint256"
        }
      ],
      "stateMutability": "nonpayable",
      "type": "function"
    },
    {
      "inputs": [],
      "name": "entryCounter",
      "outputs": [
        {
          "internalType": "uint256",
          "name": "",
          "type": "uint256"
        }
      ],
      "stateMutability": "view",
      "type": "function"
    },
    {
      "inputs": [
        {
          "internalType": "uint256",
          "name": "entryId",
          "type": "uint256"
        }
      ],
      "name": "getEncryptedEntryData",
      "outputs": [
        {
          "internalType": "euint32",
          "name": "amount",
          "type": "bytes32"
        },
        {
          "internalType": "uint256",
          "name": "timestamp",
          "type": "uint256"
        },
        {
          "internalType": "euint8",
          "name": "isIncome",
          "type": "bytes32"
        },
        {
          "internalType": "euint8",
          "name": "category",
          "type": "bytes32"
        },
        {
          "internalType": "euint8",
          "name": "subcategory",
          "type": "bytes32"
        }
      ],
      "stateMutability": "view",
      "type": "function"
    },
    {
      "inputs": [
        {
          "internalType": "address",
          "name": "user",
          "type": "address"
        }
      ],
      "name": "getEncryptedUserBalance",
      "outputs": [
        {
          "internalType": "euint32",
          "name": "",
          "type": "bytes32"
        }
      ],
      "stateMutability": "view",
      "type": "function"
    },
    {
      "inputs": [
        {
          "internalType": "uint256",
          "name": "entryId",
          "type": "uint256"
        }
      ],
      "name": "getEntryInfo",
      "outputs": [
        {
          "internalType": "address",
          "name": "owner",
          "type": "address"
        },
        {
          "internalType": "uint256",
          "name": "blockNumber",
          "type": "uint256"
        }
      ],
      "stateMutability": "view",
      "type": "function"
    },
    {
      "inputs": [],
      "name": "getTotalEntryCount",
      "outputs": [
        {
          "internalType": "uint256",
          "name": "",
          "type": "uint256"
        }
      ],
      "stateMutability": "view",
      "type": "function"
    },
    {
      "inputs": [
        {
          "internalType": "address",
          "name": "user",
          "type": "address"
        }
      ],
      "name": "getUserEntryCount",
      "outputs": [
        {
          "internalType": "uint256",
          "name": "",
          "type": "uint256"
        }
      ],
      "stateMutability": "view",
      "type": "function"
    },
    {
      "inputs": [
        {
          "internalType": "uint256",
          "name": "",
          "type": "uint256"
        }
      ],
      "name": "ledgerEntries",
      "outputs": [
        {
          "internalType": "euint32",
          "name": "amount",
          "type": "bytes32"
        },
        {
          "internalType": "uint256",
          "name": "timestamp",
          "type": "uint256"
        },
        {
          "internalType": "euint8",
          "name": "isIncome",
          "type": "bytes32"
        },
        {
          "internalType": "euint8",
          "name": "category",
          "type": "bytes32"
        },
        {
          "internalType": "euint8",
          "name": "subcategory",
          "type": "bytes32"
        },
        {
          "internalType": "address",
          "name": "owner",
          "type": "address"
        },
        {
          "internalType": "uint256",
          "name": "blockNumber",
          "type": "uint256"
        }
      ],
      "stateMutability": "view",
      "type": "function"
    },
    {
      "inputs": [],
      "name": "owner",
      "outputs": [
        {
          "internalType": "address",
          "name": "",
          "type": "address"
        }
      ],
      "stateMutability": "view",
      "type": "function"
    },
    {
      "inputs": [],
      "name": "protocolId",
      "outputs": [
        {
          "internalType": "uint256",
          "name": "",
          "type": "uint256"
        }
      ],
      "stateMutability": "pure",
      "type": "function"
    },
    {
      "inputs": [
        {
          "internalType": "address",
          "name": "",
          "type": "address"
        }
      ],
      "name": "userBalance",
      "outputs": [
        {
          "internalType": "euint32",
          "name": "",
          "type": "bytes32"
        }
      ],
      "stateMutability": "view",
      "type": "function"
    },
    {
      "inputs": [
        {
          "internalType": "address",
          "name": "",
          "type": "address"
        }
      ],
      "name": "userEntryCount",
      "outputs": [
        {
          "internalType": "uint256",
          "name": "",
          "type": "uint256"
        }
      ],
      "stateMutability": "view",
      "type": "function"
    }
  ],
  "bytecode": "0x6080604052346101605760006060610015610165565b828152826020820152826040820152015261002e610165565b606073687820221192c5b662b25367f70076a37bc79b6c9182815273848b0066793bcc60346da1f49049357399b8d59580602083015273a02cda4ca3a71d7c46997716f4283aa851c2881291826040820152731364cbbf2cdf5032c47d8226a6f6fbd2afcdacac938491015260018060a01b0319937f9e7b61f58c47dc699ac88507c4f5bb9f121c03808c5676a8078fe583e464970090858254161790557f9e7b61f58c47dc699ac88507c4f5bb9f121c03808c5676a8078fe583e464970190848254161790557f9e7b61f58c47dc699ac88507c4f5bb9f121c03808c5676a8078fe583e464970290838254161790557f9e7b61f58c47dc699ac88507c4f5bb9f121c03808c5676a8078fe583e46497039082825416179055339060045416176004556040516109b8908161019b8239f35b600080fd5b60405190608082016001600160401b0381118382101761018457604052565b634e487b7160e01b600052604160045260246000fdfe6080604081815260048036101561001557600080fd5b600092833560e01c9081630103c92b14610686575080632e5b73491461027c5780633bc9752d1461022b5780634b0cbfd5146101f257806362da8313146101385780638da5cb5b146101cb5780639355aea714610190578063b2a8116a14610157578063b64b583714610157578063d597f20514610138578063da1f12ab146101175763f0398ede146100a757600080fd5b34610113576020366003190112610113578160e093823581528060205220805492600182015492600283015460038401549184015492600660018060a01b0360058701541695015495815197885260208801528601526060850152608084015260a083015260c0820152f35b8280fd5b505034610134578160031936011261013457602090516127118152f35b5080fd5b5050346101345781600319360112610134576020906003549051908152f35b503461011357602036600319011261011357356001600160a01b0381169081900361011357828291602094526002845220549051908152f35b5034610113576020366003190112610113579181923581528060205220600660018060a01b0360058301541691015482519182526020820152f35b50346101135782600319360112610113575490516001600160a01b03909116815260209150f35b503461011357602036600319011261011357356001600160a01b0381169081900361011357828291602094526001845220549051908152f35b509034610113576020366003190112610113578060a0938335815280602052208054926001820154926002830154916003840154930154938151958652602086015284015260608301526080820152f35b509190346101345760c03660031901126101345760a49060a4359167ffffffffffffffff94858411610682573660238501121561068257838101359186831161067e576024850194602484369201011161067e57959391600354946102e0866106c2565b6003556102ee368386610733565b9360018060a01b03927f9e7b61f58c47dc699ac88507c4f5bb9f121c03808c5676a8078fe583e46497019584875416908a89519c8d9263196d0b9b60e01b845289358a85015233602485015260806044850152805191826084860152835b83811061065e575050508160a4848360209795838396840101528c6064830152601f801991011681010301925af1998a1561065457899a61061c575b50837f9e7b61f58c47dc699ac88507c4f5bb9f121c03808c5676a8078fe583e46497005416803b156106185789809160448d8b519485938492630f8e573b60e21b84528c8401523360248401525af1801561060e576105ff575b5061042661041e6103ff6103f7368587610733565b60443561077f565b9361041661040e368684610733565b60643561077f565b933691610733565b60843561077f565b9187519360e0850190858210908211176105ec579289928b926006958b528d87526020870160243581528b880191825260608801928352608088019384528b60a089019533875260c08a01974389528152806020522097518855516001880155516002870155516003860155518685015584600585019151166bffffffffffffffffffffffff60a01b82541617905551910155338652600160205283862054928784156105dc575b156105bd575b91866064926020959454168651998a95869463022f65e760e31b865285015260248401528160448401525af180156105b3578390610580575b6020945033845260018552818420556002845280832061052d81546106c2565b9055519133827facb3b3e38034857e82db5b66f66ba2dcaa615a3e197a0f2ad7643c030659d1a38380a37f13bc0fcf14f8f3ca0cb562786d0618c57a13e52bbdb4c041763d96acbfa07624339180a28152f35b506020843d6020116105ab575b8161059a60209383610711565b81010312610113576020935161050d565b3d915061058d565b81513d85823e3d90fd5b965060209291866064926105cf6108e0565b99929495509250506104d4565b93506105e66108e0565b936104ce565b634e487b7160e01b8b526041875260248bfd5b610608906106e7565b386103e2565b88513d8c823e3d90fd5b8980fd5b9099506020813d60201161064c575b8161063860209383610711565b8101031261064857519838610388565b8880fd5b3d915061062b565b87513d8b823e3d90fd5b909294829450838260208181960101519201015201918e93918e9361034c565b8580fd5b8480fd5b92919050346106be5760203660031901126106be57356001600160a01b038116908190036106be579260209381526001845220548152f35b8380fd5b60001981146106d15760010190565b634e487b7160e01b600052601160045260246000fd5b67ffffffffffffffff81116106fb57604052565b634e487b7160e01b600052604160045260246000fd5b90601f8019910116810190811067ffffffffffffffff8211176106fb57604052565b92919267ffffffffffffffff82116106fb576040519161075d601f8201601f191660200184610711565b82948184528183011161077a578281602093846000960137010152565b600080fd5b7f9e7b61f58c47dc699ac88507c4f5bb9f121c03808c5676a8078fe583e46497015460405163196d0b9b60e01b81526004810192909252336024830152608060448301528251608483018190526001600160a01b0394939185169183919060005b8281106108c85750509181600060a4828683836020998401015260026064830152601f801991011681010301925af190811561088a57600091610896575b5080927f9e7b61f58c47dc699ac88507c4f5bb9f121c03808c5676a8078fe583e4649700541690813b1561077a57600091604483926040519485938492630f8e573b60e21b845260048401523360248401525af1801561088a5761087f5750565b610888906106e7565b565b6040513d6000823e3d90fd5b90506020813d6020116108c0575b816108b160209383610711565b8101031261077a57513861081e565b3d91506108a4565b602082820181015160a48884010152869450016107e0565b60018060a01b037f9e7b61f58c47dc699ac88507c4f5bb9f121c03808c5676a8078fe583e46497015416604051639cd07acb60e01b815260208160448160008096816004840152600460248401525af191821561097657809261094257505090565b9091506020823d60201161096e575b8161095e60209383610711565b8101031261096b57505190565b80fd5b3d9150610951565b604051903d90823e3d90fdfea2646970667358221220edaf0838d736513d202810d83562fc943fe8bdb72b044e5130f8db177f3cede764736f6c63430008180033",
  "linkReferences": {},
  "deployedLinkReferences": {}
}